{
  "contracts/Register.sol": {
    "Register": {
      "abi": [
        {
          "inputs": [],
          "stateMutability": "nonpayable",
          "type": "constructor"
        },
        {
          "inputs": [],
          "name": "count",
          "outputs": [
            {
              "internalType": "uint256",
              "name": "",
              "type": "uint256"
            }
          ],
          "stateMutability": "view",
          "type": "function"
        },
        {
          "inputs": [
            {
              "internalType": "uint256",
              "name": "_studentId",
              "type": "uint256"
            }
          ],
          "name": "getStudentById",
          "outputs": [
            {
              "components": [
                {
                  "internalType": "uint256",
                  "name": "studentId",
                  "type": "uint256"
                },
                {
                  "internalType": "string",
                  "name": "studentName",
                  "type": "string"
                },
                {
                  "internalType": "bool",
                  "name": "isRemoved",
                  "type": "bool"
                }
              ],
              "internalType": "struct Register.Student",
              "name": "",
              "type": "tuple"
            }
          ],
          "stateMutability": "view",
          "type": "function"
        },
        {
          "inputs": [],
          "name": "getStudentList",
          "outputs": [
            {
              "components": [
                {
                  "internalType": "uint256",
                  "name": "studentId",
                  "type": "uint256"
                },
                {
                  "internalType": "string",
                  "name": "studentName",
                  "type": "string"
                },
                {
                  "internalType": "bool",
                  "name": "isRemoved",
                  "type": "bool"
                }
              ],
              "internalType": "struct Register.Student[]",
              "name": "",
              "type": "tuple[]"
            }
          ],
          "stateMutability": "view",
          "type": "function"
        },
        {
          "inputs": [
            {
              "internalType": "uint256",
              "name": "_studentId",
              "type": "uint256"
            },
            {
              "internalType": "string",
              "name": "_studentName",
              "type": "string"
            }
          ],
          "name": "registerStudent",
          "outputs": [],
          "stateMutability": "nonpayable",
          "type": "function"
        },
        {
          "inputs": [
            {
              "internalType": "uint256",
              "name": "_studentId",
              "type": "uint256"
            }
          ],
          "name": "removeStudent",
          "outputs": [],
          "stateMutability": "nonpayable",
          "type": "function"
        }
      ],
      "evm": {
        "bytecode": {
          "linkReferences": {},
          "object": "6080604052348015600f57600080fd5b5033600160006101000a81548173ffffffffffffffffffffffffffffffffffffffff021916908373ffffffffffffffffffffffffffffffffffffffff1602179055506111de806100606000396000f3fe608060405234801561001057600080fd5b50600436106100575760003560e01c806306661abd1461005c5780631dcc59761461007a5780633f9586d4146100985780636af83845146100b4578063c8fb0793146100d0575b600080fd5b610064610100565b604051610071919061079b565b60405180910390f35b610082610106565b60405161008f9190610982565b60405180910390f35b6100b260048036038101906100ad9190610b19565b6102bf565b005b6100ce60048036038101906100c99190610b75565b6104cf565b005b6100ea60048036038101906100e59190610b75565b610611565b6040516100f79190610bf2565b60405180910390f35b60005481565b60606000805467ffffffffffffffff811115610125576101246109ee565b5b60405190808252806020026020018201604052801561015e57816020015b61014b61075f565b8152602001906001900390816101435790505b509050600080600190505b60005481116102b657600015156006600083815260200190815260200160002060020160009054906101000a900460ff161515036102a35760066000828152602001908152602001600020604051806060016040529081600082015481526020016001820180546101d990610c43565b80601f016020809104026020016040519081016040528092919081815260200182805461020590610c43565b80156102525780601f1061022757610100808354040283529160200191610252565b820191906000526020600020905b81548152906001019060200180831161023557829003601f168201915b505050505081526020016002820160009054906101000a900460ff16151515158152505083838151811061028957610288610c74565b5b6020026020010181905250818061029f90610cd2565b9250505b80806102ae90610cd2565b915050610169565b50819250505090565b600160009054906101000a900473ffffffffffffffffffffffffffffffffffffffff1673ffffffffffffffffffffffffffffffffffffffff163373ffffffffffffffffffffffffffffffffffffffff161461031957600080fd5b600073ffffffffffffffffffffffffffffffffffffffff163373ffffffffffffffffffffffffffffffffffffffff1603610388576040517f08c379a000000000000000000000000000000000000000000000000000000000815260040161037f90610d77565b60405180910390fd5b60008081548092919061039a90610cd2565b919050555060405180606001604052808381526020018281526020016000151581525060026000820151816000015560208201518160010190816103de9190610f43565b5060408201518160020160006101000a81548160ff0219169083151502179055509050506002600560008481526020019081526020016000206000820154816000015560018201816001019081610435919061102b565b506002820160009054906101000a900460ff168160020160006101000a81548160ff02191690831515021790555090505060026006600080548152602001908152602001600020600082015481600001556001820181600101908161049a919061102b565b506002820160009054906101000a900460ff168160020160006101000a81548160ff0219169083151502179055509050505050565b600160009054906101000a900473ffffffffffffffffffffffffffffffffffffffff1673ffffffffffffffffffffffffffffffffffffffff163373ffffffffffffffffffffffffffffffffffffffff161461052957600080fd5b600073ffffffffffffffffffffffffffffffffffffffff163373ffffffffffffffffffffffffffffffffffffffff1603610598576040517f08c379a000000000000000000000000000000000000000000000000000000000815260040161058f90610d77565b60405180910390fd5b60016005600083815260200190815260200160002060020160006101000a81548160ff0219169083151502179055506001600660008054815260200190815260200160002060020160006101000a81548160ff02191690831515021790555060008081548092919061060990611113565b919050555050565b61061961075f565b600015156005600084815260200190815260200160002060020160009054906101000a900460ff16151514610683576040517f08c379a000000000000000000000000000000000000000000000000000000000815260040161067a90611188565b60405180910390fd5b60056000838152602001908152602001600020604051806060016040529081600082015481526020016001820180546106bb90610c43565b80601f01602080910402602001604051908101604052809291908181526020018280546106e790610c43565b80156107345780601f1061070957610100808354040283529160200191610734565b820191906000526020600020905b81548152906001019060200180831161071757829003601f168201915b505050505081526020016002820160009054906101000a900460ff1615151515815250509050919050565b604051806060016040528060008152602001606081526020016000151581525090565b6000819050919050565b61079581610782565b82525050565b60006020820190506107b0600083018461078c565b92915050565b600081519050919050565b600082825260208201905092915050565b6000819050602082019050919050565b6107eb81610782565b82525050565b600081519050919050565b600082825260208201905092915050565b60005b8381101561082b578082015181840152602081019050610810565b60008484015250505050565b6000601f19601f8301169050919050565b6000610853826107f1565b61085d81856107fc565b935061086d81856020860161080d565b61087681610837565b840191505092915050565b60008115159050919050565b61089681610881565b82525050565b60006060830160008301516108b460008601826107e2565b50602083015184820360208601526108cc8282610848565b91505060408301516108e1604086018261088d565b508091505092915050565b60006108f8838361089c565b905092915050565b6000602082019050919050565b6000610918826107b6565b61092281856107c1565b935083602082028501610934856107d2565b8060005b85811015610970578484038952815161095185826108ec565b945061095c83610900565b925060208a01995050600181019050610938565b50829750879550505050505092915050565b6000602082019050818103600083015261099c818461090d565b905092915050565b6000604051905090565b600080fd5b600080fd5b6109c181610782565b81146109cc57600080fd5b50565b6000813590506109de816109b8565b92915050565b600080fd5b600080fd5b7f4e487b7100000000000000000000000000000000000000000000000000000000600052604160045260246000fd5b610a2682610837565b810181811067ffffffffffffffff82111715610a4557610a446109ee565b5b80604052505050565b6000610a586109a4565b9050610a648282610a1d565b919050565b600067ffffffffffffffff821115610a8457610a836109ee565b5b610a8d82610837565b9050602081019050919050565b82818337600083830152505050565b6000610abc610ab784610a69565b610a4e565b905082815260208101848484011115610ad857610ad76109e9565b5b610ae3848285610a9a565b509392505050565b600082601f830112610b0057610aff6109e4565b5b8135610b10848260208601610aa9565b91505092915050565b60008060408385031215610b3057610b2f6109ae565b5b6000610b3e858286016109cf565b925050602083013567ffffffffffffffff811115610b5f57610b5e6109b3565b5b610b6b85828601610aeb565b9150509250929050565b600060208284031215610b8b57610b8a6109ae565b5b6000610b99848285016109cf565b91505092915050565b6000606083016000830151610bba60008601826107e2565b5060208301518482036020860152610bd28282610848565b9150506040830151610be7604086018261088d565b508091505092915050565b60006020820190508181036000830152610c0c8184610ba2565b905092915050565b7f4e487b7100000000000000000000000000000000000000000000000000000000600052602260045260246000fd5b60006002820490506001821680610c5b57607f821691505b602082108103610c6e57610c6d610c14565b5b50919050565b7f4e487b7100000000000000000000000000000000000000000000000000000000600052603260045260246000fd5b7f4e487b7100000000000000000000000000000000000000000000000000000000600052601160045260246000fd5b6000610cdd82610782565b91507fffffffffffffffffffffffffffffffffffffffffffffffffffffffffffffffff8203610d0f57610d0e610ca3565b5b600182019050919050565b600082825260208201905092915050565b7f41646472657373207a65726f206e6f742076616c696400000000000000000000600082015250565b6000610d61601683610d1a565b9150610d6c82610d2b565b602082019050919050565b60006020820190508181036000830152610d9081610d54565b9050919050565b60008190508160005260206000209050919050565b60006020601f8301049050919050565b600082821b905092915050565b600060088302610df97fffffffffffffffffffffffffffffffffffffffffffffffffffffffffffffffff82610dbc565b610e038683610dbc565b95508019841693508086168417925050509392505050565b6000819050919050565b6000610e40610e3b610e3684610782565b610e1b565b610782565b9050919050565b6000819050919050565b610e5a83610e25565b610e6e610e6682610e47565b848454610dc9565b825550505050565b600090565b610e83610e76565b610e8e818484610e51565b505050565b5b81811015610eb257610ea7600082610e7b565b600181019050610e94565b5050565b601f821115610ef757610ec881610d97565b610ed184610dac565b81016020851015610ee0578190505b610ef4610eec85610dac565b830182610e93565b50505b505050565b600082821c905092915050565b6000610f1a60001984600802610efc565b1980831691505092915050565b6000610f338383610f09565b9150826002028217905092915050565b610f4c826107f1565b67ffffffffffffffff811115610f6557610f646109ee565b5b610f6f8254610c43565b610f7a828285610eb6565b600060209050601f831160018114610fad5760008415610f9b578287015190505b610fa58582610f27565b86555061100d565b601f198416610fbb86610d97565b60005b82811015610fe357848901518255600182019150602085019450602081019050610fbe565b868310156110005784890151610ffc601f891682610f09565b8355505b6001600288020188555050505b505050505050565b60008154905061102481610c43565b9050919050565b818103611039575050611111565b61104282611015565b67ffffffffffffffff81111561105b5761105a6109ee565b5b6110658254610c43565b611070828285610eb6565b6000601f83116001811461109f576000841561108d578287015490505b6110978582610f27565b86555061110a565b601f1984166110ad87610d97565b96506110b886610d97565b60005b828110156110e0578489015482556001820191506001850194506020810190506110bb565b868310156110fd57848901546110f9601f891682610f09565b8355505b6001600288020188555050505b5050505050505b565b600061111e82610782565b91506000820361113157611130610ca3565b5b600182039050919050565b7f53747564656e7420686173206265656e2064656c657465640000000000000000600082015250565b6000611172601883610d1a565b915061117d8261113c565b602082019050919050565b600060208201905081810360008301526111a181611165565b905091905056fea26469706673582212204f6e428e18973dbe6a3d090b765552581baa58bcfe0911e2bb10cbbdfe21114e64736f6c634300081c0033",
          "opcodes": "PUSH1 0x80 PUSH1 0x40 MSTORE CALLVALUE DUP1 ISZERO PUSH1 0xF JUMPI PUSH1 0x0 DUP1 REVERT JUMPDEST POP CALLER PUSH1 0x1 PUSH1 0x0 PUSH2 0x100 EXP DUP2 SLOAD DUP2 PUSH20 0xFFFFFFFFFFFFFFFFFFFFFFFFFFFFFFFFFFFFFFFF MUL NOT AND SWAP1 DUP4 PUSH20 0xFFFFFFFFFFFFFFFFFFFFFFFFFFFFFFFFFFFFFFFF AND MUL OR SWAP1 SSTORE POP PUSH2 0x11DE DUP1 PUSH2 0x60 PUSH1 0x0 CODECOPY PUSH1 0x0 RETURN INVALID PUSH1 0x80 PUSH1 0x40 MSTORE CALLVALUE DUP1 ISZERO PUSH2 0x10 JUMPI PUSH1 0x0 DUP1 REVERT JUMPDEST POP PUSH1 0x4 CALLDATASIZE LT PUSH2 0x57 JUMPI PUSH1 0x0 CALLDATALOAD PUSH1 0xE0 SHR DUP1 PUSH4 0x6661ABD EQ PUSH2 0x5C JUMPI DUP1 PUSH4 0x1DCC5976 EQ PUSH2 0x7A JUMPI DUP1 PUSH4 0x3F9586D4 EQ PUSH2 0x98 JUMPI DUP1 PUSH4 0x6AF83845 EQ PUSH2 0xB4 JUMPI DUP1 PUSH4 0xC8FB0793 EQ PUSH2 0xD0 JUMPI JUMPDEST PUSH1 0x0 DUP1 REVERT JUMPDEST PUSH2 0x64 PUSH2 0x100 JUMP JUMPDEST PUSH1 0x40 MLOAD PUSH2 0x71 SWAP2 SWAP1 PUSH2 0x79B JUMP JUMPDEST PUSH1 0x40 MLOAD DUP1 SWAP2 SUB SWAP1 RETURN JUMPDEST PUSH2 0x82 PUSH2 0x106 JUMP JUMPDEST PUSH1 0x40 MLOAD PUSH2 0x8F SWAP2 SWAP1 PUSH2 0x982 JUMP JUMPDEST PUSH1 0x40 MLOAD DUP1 SWAP2 SUB SWAP1 RETURN JUMPDEST PUSH2 0xB2 PUSH1 0x4 DUP1 CALLDATASIZE SUB DUP2 ADD SWAP1 PUSH2 0xAD SWAP2 SWAP1 PUSH2 0xB19 JUMP JUMPDEST PUSH2 0x2BF JUMP JUMPDEST STOP JUMPDEST PUSH2 0xCE PUSH1 0x4 DUP1 CALLDATASIZE SUB DUP2 ADD SWAP1 PUSH2 0xC9 SWAP2 SWAP1 PUSH2 0xB75 JUMP JUMPDEST PUSH2 0x4CF JUMP JUMPDEST STOP JUMPDEST PUSH2 0xEA PUSH1 0x4 DUP1 CALLDATASIZE SUB DUP2 ADD SWAP1 PUSH2 0xE5 SWAP2 SWAP1 PUSH2 0xB75 JUMP JUMPDEST PUSH2 0x611 JUMP JUMPDEST PUSH1 0x40 MLOAD PUSH2 0xF7 SWAP2 SWAP1 PUSH2 0xBF2 JUMP JUMPDEST PUSH1 0x40 MLOAD DUP1 SWAP2 SUB SWAP1 RETURN JUMPDEST PUSH1 0x0 SLOAD DUP2 JUMP JUMPDEST PUSH1 0x60 PUSH1 0x0 DUP1 SLOAD PUSH8 0xFFFFFFFFFFFFFFFF DUP2 GT ISZERO PUSH2 0x125 JUMPI PUSH2 0x124 PUSH2 0x9EE JUMP JUMPDEST JUMPDEST PUSH1 0x40 MLOAD SWAP1 DUP1 DUP3 MSTORE DUP1 PUSH1 0x20 MUL PUSH1 0x20 ADD DUP3 ADD PUSH1 0x40 MSTORE DUP1 ISZERO PUSH2 0x15E JUMPI DUP2 PUSH1 0x20 ADD JUMPDEST PUSH2 0x14B PUSH2 0x75F JUMP JUMPDEST DUP2 MSTORE PUSH1 0x20 ADD SWAP1 PUSH1 0x1 SWAP1 SUB SWAP1 DUP2 PUSH2 0x143 JUMPI SWAP1 POP JUMPDEST POP SWAP1 POP PUSH1 0x0 DUP1 PUSH1 0x1 SWAP1 POP JUMPDEST PUSH1 0x0 SLOAD DUP2 GT PUSH2 0x2B6 JUMPI PUSH1 0x0 ISZERO ISZERO PUSH1 0x6 PUSH1 0x0 DUP4 DUP2 MSTORE PUSH1 0x20 ADD SWAP1 DUP2 MSTORE PUSH1 0x20 ADD PUSH1 0x0 KECCAK256 PUSH1 0x2 ADD PUSH1 0x0 SWAP1 SLOAD SWAP1 PUSH2 0x100 EXP SWAP1 DIV PUSH1 0xFF AND ISZERO ISZERO SUB PUSH2 0x2A3 JUMPI PUSH1 0x6 PUSH1 0x0 DUP3 DUP2 MSTORE PUSH1 0x20 ADD SWAP1 DUP2 MSTORE PUSH1 0x20 ADD PUSH1 0x0 KECCAK256 PUSH1 0x40 MLOAD DUP1 PUSH1 0x60 ADD PUSH1 0x40 MSTORE SWAP1 DUP2 PUSH1 0x0 DUP3 ADD SLOAD DUP2 MSTORE PUSH1 0x20 ADD PUSH1 0x1 DUP3 ADD DUP1 SLOAD PUSH2 0x1D9 SWAP1 PUSH2 0xC43 JUMP JUMPDEST DUP1 PUSH1 0x1F ADD PUSH1 0x20 DUP1 SWAP2 DIV MUL PUSH1 0x20 ADD PUSH1 0x40 MLOAD SWAP1 DUP2 ADD PUSH1 0x40 MSTORE DUP1 SWAP3 SWAP2 SWAP1 DUP2 DUP2 MSTORE PUSH1 0x20 ADD DUP3 DUP1 SLOAD PUSH2 0x205 SWAP1 PUSH2 0xC43 JUMP JUMPDEST DUP1 ISZERO PUSH2 0x252 JUMPI DUP1 PUSH1 0x1F LT PUSH2 0x227 JUMPI PUSH2 0x100 DUP1 DUP4 SLOAD DIV MUL DUP4 MSTORE SWAP2 PUSH1 0x20 ADD SWAP2 PUSH2 0x252 JUMP JUMPDEST DUP3 ADD SWAP2 SWAP1 PUSH1 0x0 MSTORE PUSH1 0x20 PUSH1 0x0 KECCAK256 SWAP1 JUMPDEST DUP2 SLOAD DUP2 MSTORE SWAP1 PUSH1 0x1 ADD SWAP1 PUSH1 0x20 ADD DUP1 DUP4 GT PUSH2 0x235 JUMPI DUP3 SWAP1 SUB PUSH1 0x1F AND DUP3 ADD SWAP2 JUMPDEST POP POP POP POP POP DUP2 MSTORE PUSH1 0x20 ADD PUSH1 0x2 DUP3 ADD PUSH1 0x0 SWAP1 SLOAD SWAP1 PUSH2 0x100 EXP SWAP1 DIV PUSH1 0xFF AND ISZERO ISZERO ISZERO ISZERO DUP2 MSTORE POP POP DUP4 DUP4 DUP2 MLOAD DUP2 LT PUSH2 0x289 JUMPI PUSH2 0x288 PUSH2 0xC74 JUMP JUMPDEST JUMPDEST PUSH1 0x20 MUL PUSH1 0x20 ADD ADD DUP2 SWAP1 MSTORE POP DUP2 DUP1 PUSH2 0x29F SWAP1 PUSH2 0xCD2 JUMP JUMPDEST SWAP3 POP POP JUMPDEST DUP1 DUP1 PUSH2 0x2AE SWAP1 PUSH2 0xCD2 JUMP JUMPDEST SWAP2 POP POP PUSH2 0x169 JUMP JUMPDEST POP DUP2 SWAP3 POP POP POP SWAP1 JUMP JUMPDEST PUSH1 0x1 PUSH1 0x0 SWAP1 SLOAD SWAP1 PUSH2 0x100 EXP SWAP1 DIV PUSH20 0xFFFFFFFFFFFFFFFFFFFFFFFFFFFFFFFFFFFFFFFF AND PUSH20 0xFFFFFFFFFFFFFFFFFFFFFFFFFFFFFFFFFFFFFFFF AND CALLER PUSH20 0xFFFFFFFFFFFFFFFFFFFFFFFFFFFFFFFFFFFFFFFF AND EQ PUSH2 0x319 JUMPI PUSH1 0x0 DUP1 REVERT JUMPDEST PUSH1 0x0 PUSH20 0xFFFFFFFFFFFFFFFFFFFFFFFFFFFFFFFFFFFFFFFF AND CALLER PUSH20 0xFFFFFFFFFFFFFFFFFFFFFFFFFFFFFFFFFFFFFFFF AND SUB PUSH2 0x388 JUMPI PUSH1 0x40 MLOAD PUSH32 0x8C379A000000000000000000000000000000000000000000000000000000000 DUP2 MSTORE PUSH1 0x4 ADD PUSH2 0x37F SWAP1 PUSH2 0xD77 JUMP JUMPDEST PUSH1 0x40 MLOAD DUP1 SWAP2 SUB SWAP1 REVERT JUMPDEST PUSH1 0x0 DUP1 DUP2 SLOAD DUP1 SWAP3 SWAP2 SWAP1 PUSH2 0x39A SWAP1 PUSH2 0xCD2 JUMP JUMPDEST SWAP2 SWAP1 POP SSTORE POP PUSH1 0x40 MLOAD DUP1 PUSH1 0x60 ADD PUSH1 0x40 MSTORE DUP1 DUP4 DUP2 MSTORE PUSH1 0x20 ADD DUP3 DUP2 MSTORE PUSH1 0x20 ADD PUSH1 0x0 ISZERO ISZERO DUP2 MSTORE POP PUSH1 0x2 PUSH1 0x0 DUP3 ADD MLOAD DUP2 PUSH1 0x0 ADD SSTORE PUSH1 0x20 DUP3 ADD MLOAD DUP2 PUSH1 0x1 ADD SWAP1 DUP2 PUSH2 0x3DE SWAP2 SWAP1 PUSH2 0xF43 JUMP JUMPDEST POP PUSH1 0x40 DUP3 ADD MLOAD DUP2 PUSH1 0x2 ADD PUSH1 0x0 PUSH2 0x100 EXP DUP2 SLOAD DUP2 PUSH1 0xFF MUL NOT AND SWAP1 DUP4 ISZERO ISZERO MUL OR SWAP1 SSTORE POP SWAP1 POP POP PUSH1 0x2 PUSH1 0x5 PUSH1 0x0 DUP5 DUP2 MSTORE PUSH1 0x20 ADD SWAP1 DUP2 MSTORE PUSH1 0x20 ADD PUSH1 0x0 KECCAK256 PUSH1 0x0 DUP3 ADD SLOAD DUP2 PUSH1 0x0 ADD SSTORE PUSH1 0x1 DUP3 ADD DUP2 PUSH1 0x1 ADD SWAP1 DUP2 PUSH2 0x435 SWAP2 SWAP1 PUSH2 0x102B JUMP JUMPDEST POP PUSH1 0x2 DUP3 ADD PUSH1 0x0 SWAP1 SLOAD SWAP1 PUSH2 0x100 EXP SWAP1 DIV PUSH1 0xFF AND DUP2 PUSH1 0x2 ADD PUSH1 0x0 PUSH2 0x100 EXP DUP2 SLOAD DUP2 PUSH1 0xFF MUL NOT AND SWAP1 DUP4 ISZERO ISZERO MUL OR SWAP1 SSTORE POP SWAP1 POP POP PUSH1 0x2 PUSH1 0x6 PUSH1 0x0 DUP1 SLOAD DUP2 MSTORE PUSH1 0x20 ADD SWAP1 DUP2 MSTORE PUSH1 0x20 ADD PUSH1 0x0 KECCAK256 PUSH1 0x0 DUP3 ADD SLOAD DUP2 PUSH1 0x0 ADD SSTORE PUSH1 0x1 DUP3 ADD DUP2 PUSH1 0x1 ADD SWAP1 DUP2 PUSH2 0x49A SWAP2 SWAP1 PUSH2 0x102B JUMP JUMPDEST POP PUSH1 0x2 DUP3 ADD PUSH1 0x0 SWAP1 SLOAD SWAP1 PUSH2 0x100 EXP SWAP1 DIV PUSH1 0xFF AND DUP2 PUSH1 0x2 ADD PUSH1 0x0 PUSH2 0x100 EXP DUP2 SLOAD DUP2 PUSH1 0xFF MUL NOT AND SWAP1 DUP4 ISZERO ISZERO MUL OR SWAP1 SSTORE POP SWAP1 POP POP POP POP JUMP JUMPDEST PUSH1 0x1 PUSH1 0x0 SWAP1 SLOAD SWAP1 PUSH2 0x100 EXP SWAP1 DIV PUSH20 0xFFFFFFFFFFFFFFFFFFFFFFFFFFFFFFFFFFFFFFFF AND PUSH20 0xFFFFFFFFFFFFFFFFFFFFFFFFFFFFFFFFFFFFFFFF AND CALLER PUSH20 0xFFFFFFFFFFFFFFFFFFFFFFFFFFFFFFFFFFFFFFFF AND EQ PUSH2 0x529 JUMPI PUSH1 0x0 DUP1 REVERT JUMPDEST PUSH1 0x0 PUSH20 0xFFFFFFFFFFFFFFFFFFFFFFFFFFFFFFFFFFFFFFFF AND CALLER PUSH20 0xFFFFFFFFFFFFFFFFFFFFFFFFFFFFFFFFFFFFFFFF AND SUB PUSH2 0x598 JUMPI PUSH1 0x40 MLOAD PUSH32 0x8C379A000000000000000000000000000000000000000000000000000000000 DUP2 MSTORE PUSH1 0x4 ADD PUSH2 0x58F SWAP1 PUSH2 0xD77 JUMP JUMPDEST PUSH1 0x40 MLOAD DUP1 SWAP2 SUB SWAP1 REVERT JUMPDEST PUSH1 0x1 PUSH1 0x5 PUSH1 0x0 DUP4 DUP2 MSTORE PUSH1 0x20 ADD SWAP1 DUP2 MSTORE PUSH1 0x20 ADD PUSH1 0x0 KECCAK256 PUSH1 0x2 ADD PUSH1 0x0 PUSH2 0x100 EXP DUP2 SLOAD DUP2 PUSH1 0xFF MUL NOT AND SWAP1 DUP4 ISZERO ISZERO MUL OR SWAP1 SSTORE POP PUSH1 0x1 PUSH1 0x6 PUSH1 0x0 DUP1 SLOAD DUP2 MSTORE PUSH1 0x20 ADD SWAP1 DUP2 MSTORE PUSH1 0x20 ADD PUSH1 0x0 KECCAK256 PUSH1 0x2 ADD PUSH1 0x0 PUSH2 0x100 EXP DUP2 SLOAD DUP2 PUSH1 0xFF MUL NOT AND SWAP1 DUP4 ISZERO ISZERO MUL OR SWAP1 SSTORE POP PUSH1 0x0 DUP1 DUP2 SLOAD DUP1 SWAP3 SWAP2 SWAP1 PUSH2 0x609 SWAP1 PUSH2 0x1113 JUMP JUMPDEST SWAP2 SWAP1 POP SSTORE POP POP JUMP JUMPDEST PUSH2 0x619 PUSH2 0x75F JUMP JUMPDEST PUSH1 0x0 ISZERO ISZERO PUSH1 0x5 PUSH1 0x0 DUP5 DUP2 MSTORE PUSH1 0x20 ADD SWAP1 DUP2 MSTORE PUSH1 0x20 ADD PUSH1 0x0 KECCAK256 PUSH1 0x2 ADD PUSH1 0x0 SWAP1 SLOAD SWAP1 PUSH2 0x100 EXP SWAP1 DIV PUSH1 0xFF AND ISZERO ISZERO EQ PUSH2 0x683 JUMPI PUSH1 0x40 MLOAD PUSH32 0x8C379A000000000000000000000000000000000000000000000000000000000 DUP2 MSTORE PUSH1 0x4 ADD PUSH2 0x67A SWAP1 PUSH2 0x1188 JUMP JUMPDEST PUSH1 0x40 MLOAD DUP1 SWAP2 SUB SWAP1 REVERT JUMPDEST PUSH1 0x5 PUSH1 0x0 DUP4 DUP2 MSTORE PUSH1 0x20 ADD SWAP1 DUP2 MSTORE PUSH1 0x20 ADD PUSH1 0x0 KECCAK256 PUSH1 0x40 MLOAD DUP1 PUSH1 0x60 ADD PUSH1 0x40 MSTORE SWAP1 DUP2 PUSH1 0x0 DUP3 ADD SLOAD DUP2 MSTORE PUSH1 0x20 ADD PUSH1 0x1 DUP3 ADD DUP1 SLOAD PUSH2 0x6BB SWAP1 PUSH2 0xC43 JUMP JUMPDEST DUP1 PUSH1 0x1F ADD PUSH1 0x20 DUP1 SWAP2 DIV MUL PUSH1 0x20 ADD PUSH1 0x40 MLOAD SWAP1 DUP2 ADD PUSH1 0x40 MSTORE DUP1 SWAP3 SWAP2 SWAP1 DUP2 DUP2 MSTORE PUSH1 0x20 ADD DUP3 DUP1 SLOAD PUSH2 0x6E7 SWAP1 PUSH2 0xC43 JUMP JUMPDEST DUP1 ISZERO PUSH2 0x734 JUMPI DUP1 PUSH1 0x1F LT PUSH2 0x709 JUMPI PUSH2 0x100 DUP1 DUP4 SLOAD DIV MUL DUP4 MSTORE SWAP2 PUSH1 0x20 ADD SWAP2 PUSH2 0x734 JUMP JUMPDEST DUP3 ADD SWAP2 SWAP1 PUSH1 0x0 MSTORE PUSH1 0x20 PUSH1 0x0 KECCAK256 SWAP1 JUMPDEST DUP2 SLOAD DUP2 MSTORE SWAP1 PUSH1 0x1 ADD SWAP1 PUSH1 0x20 ADD DUP1 DUP4 GT PUSH2 0x717 JUMPI DUP3 SWAP1 SUB PUSH1 0x1F AND DUP3 ADD SWAP2 JUMPDEST POP POP POP POP POP DUP2 MSTORE PUSH1 0x20 ADD PUSH1 0x2 DUP3 ADD PUSH1 0x0 SWAP1 SLOAD SWAP1 PUSH2 0x100 EXP SWAP1 DIV PUSH1 0xFF AND ISZERO ISZERO ISZERO ISZERO DUP2 MSTORE POP POP SWAP1 POP SWAP2 SWAP1 POP JUMP JUMPDEST PUSH1 0x40 MLOAD DUP1 PUSH1 0x60 ADD PUSH1 0x40 MSTORE DUP1 PUSH1 0x0 DUP2 MSTORE PUSH1 0x20 ADD PUSH1 0x60 DUP2 MSTORE PUSH1 0x20 ADD PUSH1 0x0 ISZERO ISZERO DUP2 MSTORE POP SWAP1 JUMP JUMPDEST PUSH1 0x0 DUP2 SWAP1 POP SWAP2 SWAP1 POP JUMP JUMPDEST PUSH2 0x795 DUP2 PUSH2 0x782 JUMP JUMPDEST DUP3 MSTORE POP POP JUMP JUMPDEST PUSH1 0x0 PUSH1 0x20 DUP3 ADD SWAP1 POP PUSH2 0x7B0 PUSH1 0x0 DUP4 ADD DUP5 PUSH2 0x78C JUMP JUMPDEST SWAP3 SWAP2 POP POP JUMP JUMPDEST PUSH1 0x0 DUP2 MLOAD SWAP1 POP SWAP2 SWAP1 POP JUMP JUMPDEST PUSH1 0x0 DUP3 DUP3 MSTORE PUSH1 0x20 DUP3 ADD SWAP1 POP SWAP3 SWAP2 POP POP JUMP JUMPDEST PUSH1 0x0 DUP2 SWAP1 POP PUSH1 0x20 DUP3 ADD SWAP1 POP SWAP2 SWAP1 POP JUMP JUMPDEST PUSH2 0x7EB DUP2 PUSH2 0x782 JUMP JUMPDEST DUP3 MSTORE POP POP JUMP JUMPDEST PUSH1 0x0 DUP2 MLOAD SWAP1 POP SWAP2 SWAP1 POP JUMP JUMPDEST PUSH1 0x0 DUP3 DUP3 MSTORE PUSH1 0x20 DUP3 ADD SWAP1 POP SWAP3 SWAP2 POP POP JUMP JUMPDEST PUSH1 0x0 JUMPDEST DUP4 DUP2 LT ISZERO PUSH2 0x82B JUMPI DUP1 DUP3 ADD MLOAD DUP2 DUP5 ADD MSTORE PUSH1 0x20 DUP2 ADD SWAP1 POP PUSH2 0x810 JUMP JUMPDEST PUSH1 0x0 DUP5 DUP5 ADD MSTORE POP POP POP POP JUMP JUMPDEST PUSH1 0x0 PUSH1 0x1F NOT PUSH1 0x1F DUP4 ADD AND SWAP1 POP SWAP2 SWAP1 POP JUMP JUMPDEST PUSH1 0x0 PUSH2 0x853 DUP3 PUSH2 0x7F1 JUMP JUMPDEST PUSH2 0x85D DUP2 DUP6 PUSH2 0x7FC JUMP JUMPDEST SWAP4 POP PUSH2 0x86D DUP2 DUP6 PUSH1 0x20 DUP7 ADD PUSH2 0x80D JUMP JUMPDEST PUSH2 0x876 DUP2 PUSH2 0x837 JUMP JUMPDEST DUP5 ADD SWAP2 POP POP SWAP3 SWAP2 POP POP JUMP JUMPDEST PUSH1 0x0 DUP2 ISZERO ISZERO SWAP1 POP SWAP2 SWAP1 POP JUMP JUMPDEST PUSH2 0x896 DUP2 PUSH2 0x881 JUMP JUMPDEST DUP3 MSTORE POP POP JUMP JUMPDEST PUSH1 0x0 PUSH1 0x60 DUP4 ADD PUSH1 0x0 DUP4 ADD MLOAD PUSH2 0x8B4 PUSH1 0x0 DUP7 ADD DUP3 PUSH2 0x7E2 JUMP JUMPDEST POP PUSH1 0x20 DUP4 ADD MLOAD DUP5 DUP3 SUB PUSH1 0x20 DUP7 ADD MSTORE PUSH2 0x8CC DUP3 DUP3 PUSH2 0x848 JUMP JUMPDEST SWAP2 POP POP PUSH1 0x40 DUP4 ADD MLOAD PUSH2 0x8E1 PUSH1 0x40 DUP7 ADD DUP3 PUSH2 0x88D JUMP JUMPDEST POP DUP1 SWAP2 POP POP SWAP3 SWAP2 POP POP JUMP JUMPDEST PUSH1 0x0 PUSH2 0x8F8 DUP4 DUP4 PUSH2 0x89C JUMP JUMPDEST SWAP1 POP SWAP3 SWAP2 POP POP JUMP JUMPDEST PUSH1 0x0 PUSH1 0x20 DUP3 ADD SWAP1 POP SWAP2 SWAP1 POP JUMP JUMPDEST PUSH1 0x0 PUSH2 0x918 DUP3 PUSH2 0x7B6 JUMP JUMPDEST PUSH2 0x922 DUP2 DUP6 PUSH2 0x7C1 JUMP JUMPDEST SWAP4 POP DUP4 PUSH1 0x20 DUP3 MUL DUP6 ADD PUSH2 0x934 DUP6 PUSH2 0x7D2 JUMP JUMPDEST DUP1 PUSH1 0x0 JUMPDEST DUP6 DUP2 LT ISZERO PUSH2 0x970 JUMPI DUP5 DUP5 SUB DUP10 MSTORE DUP2 MLOAD PUSH2 0x951 DUP6 DUP3 PUSH2 0x8EC JUMP JUMPDEST SWAP5 POP PUSH2 0x95C DUP4 PUSH2 0x900 JUMP JUMPDEST SWAP3 POP PUSH1 0x20 DUP11 ADD SWAP10 POP POP PUSH1 0x1 DUP2 ADD SWAP1 POP PUSH2 0x938 JUMP JUMPDEST POP DUP3 SWAP8 POP DUP8 SWAP6 POP POP POP POP POP POP SWAP3 SWAP2 POP POP JUMP JUMPDEST PUSH1 0x0 PUSH1 0x20 DUP3 ADD SWAP1 POP DUP2 DUP2 SUB PUSH1 0x0 DUP4 ADD MSTORE PUSH2 0x99C DUP2 DUP5 PUSH2 0x90D JUMP JUMPDEST SWAP1 POP SWAP3 SWAP2 POP POP JUMP JUMPDEST PUSH1 0x0 PUSH1 0x40 MLOAD SWAP1 POP SWAP1 JUMP JUMPDEST PUSH1 0x0 DUP1 REVERT JUMPDEST PUSH1 0x0 DUP1 REVERT JUMPDEST PUSH2 0x9C1 DUP2 PUSH2 0x782 JUMP JUMPDEST DUP2 EQ PUSH2 0x9CC JUMPI PUSH1 0x0 DUP1 REVERT JUMPDEST POP JUMP JUMPDEST PUSH1 0x0 DUP2 CALLDATALOAD SWAP1 POP PUSH2 0x9DE DUP2 PUSH2 0x9B8 JUMP JUMPDEST SWAP3 SWAP2 POP POP JUMP JUMPDEST PUSH1 0x0 DUP1 REVERT JUMPDEST PUSH1 0x0 DUP1 REVERT JUMPDEST PUSH32 0x4E487B7100000000000000000000000000000000000000000000000000000000 PUSH1 0x0 MSTORE PUSH1 0x41 PUSH1 0x4 MSTORE PUSH1 0x24 PUSH1 0x0 REVERT JUMPDEST PUSH2 0xA26 DUP3 PUSH2 0x837 JUMP JUMPDEST DUP2 ADD DUP2 DUP2 LT PUSH8 0xFFFFFFFFFFFFFFFF DUP3 GT OR ISZERO PUSH2 0xA45 JUMPI PUSH2 0xA44 PUSH2 0x9EE JUMP JUMPDEST JUMPDEST DUP1 PUSH1 0x40 MSTORE POP POP POP JUMP JUMPDEST PUSH1 0x0 PUSH2 0xA58 PUSH2 0x9A4 JUMP JUMPDEST SWAP1 POP PUSH2 0xA64 DUP3 DUP3 PUSH2 0xA1D JUMP JUMPDEST SWAP2 SWAP1 POP JUMP JUMPDEST PUSH1 0x0 PUSH8 0xFFFFFFFFFFFFFFFF DUP3 GT ISZERO PUSH2 0xA84 JUMPI PUSH2 0xA83 PUSH2 0x9EE JUMP JUMPDEST JUMPDEST PUSH2 0xA8D DUP3 PUSH2 0x837 JUMP JUMPDEST SWAP1 POP PUSH1 0x20 DUP2 ADD SWAP1 POP SWAP2 SWAP1 POP JUMP JUMPDEST DUP3 DUP2 DUP4 CALLDATACOPY PUSH1 0x0 DUP4 DUP4 ADD MSTORE POP POP POP JUMP JUMPDEST PUSH1 0x0 PUSH2 0xABC PUSH2 0xAB7 DUP5 PUSH2 0xA69 JUMP JUMPDEST PUSH2 0xA4E JUMP JUMPDEST SWAP1 POP DUP3 DUP2 MSTORE PUSH1 0x20 DUP2 ADD DUP5 DUP5 DUP5 ADD GT ISZERO PUSH2 0xAD8 JUMPI PUSH2 0xAD7 PUSH2 0x9E9 JUMP JUMPDEST JUMPDEST PUSH2 0xAE3 DUP5 DUP3 DUP6 PUSH2 0xA9A JUMP JUMPDEST POP SWAP4 SWAP3 POP POP POP JUMP JUMPDEST PUSH1 0x0 DUP3 PUSH1 0x1F DUP4 ADD SLT PUSH2 0xB00 JUMPI PUSH2 0xAFF PUSH2 0x9E4 JUMP JUMPDEST JUMPDEST DUP2 CALLDATALOAD PUSH2 0xB10 DUP5 DUP3 PUSH1 0x20 DUP7 ADD PUSH2 0xAA9 JUMP JUMPDEST SWAP2 POP POP SWAP3 SWAP2 POP POP JUMP JUMPDEST PUSH1 0x0 DUP1 PUSH1 0x40 DUP4 DUP6 SUB SLT ISZERO PUSH2 0xB30 JUMPI PUSH2 0xB2F PUSH2 0x9AE JUMP JUMPDEST JUMPDEST PUSH1 0x0 PUSH2 0xB3E DUP6 DUP3 DUP7 ADD PUSH2 0x9CF JUMP JUMPDEST SWAP3 POP POP PUSH1 0x20 DUP4 ADD CALLDATALOAD PUSH8 0xFFFFFFFFFFFFFFFF DUP2 GT ISZERO PUSH2 0xB5F JUMPI PUSH2 0xB5E PUSH2 0x9B3 JUMP JUMPDEST JUMPDEST PUSH2 0xB6B DUP6 DUP3 DUP7 ADD PUSH2 0xAEB JUMP JUMPDEST SWAP2 POP POP SWAP3 POP SWAP3 SWAP1 POP JUMP JUMPDEST PUSH1 0x0 PUSH1 0x20 DUP3 DUP5 SUB SLT ISZERO PUSH2 0xB8B JUMPI PUSH2 0xB8A PUSH2 0x9AE JUMP JUMPDEST JUMPDEST PUSH1 0x0 PUSH2 0xB99 DUP5 DUP3 DUP6 ADD PUSH2 0x9CF JUMP JUMPDEST SWAP2 POP POP SWAP3 SWAP2 POP POP JUMP JUMPDEST PUSH1 0x0 PUSH1 0x60 DUP4 ADD PUSH1 0x0 DUP4 ADD MLOAD PUSH2 0xBBA PUSH1 0x0 DUP7 ADD DUP3 PUSH2 0x7E2 JUMP JUMPDEST POP PUSH1 0x20 DUP4 ADD MLOAD DUP5 DUP3 SUB PUSH1 0x20 DUP7 ADD MSTORE PUSH2 0xBD2 DUP3 DUP3 PUSH2 0x848 JUMP JUMPDEST SWAP2 POP POP PUSH1 0x40 DUP4 ADD MLOAD PUSH2 0xBE7 PUSH1 0x40 DUP7 ADD DUP3 PUSH2 0x88D JUMP JUMPDEST POP DUP1 SWAP2 POP POP SWAP3 SWAP2 POP POP JUMP JUMPDEST PUSH1 0x0 PUSH1 0x20 DUP3 ADD SWAP1 POP DUP2 DUP2 SUB PUSH1 0x0 DUP4 ADD MSTORE PUSH2 0xC0C DUP2 DUP5 PUSH2 0xBA2 JUMP JUMPDEST SWAP1 POP SWAP3 SWAP2 POP POP JUMP JUMPDEST PUSH32 0x4E487B7100000000000000000000000000000000000000000000000000000000 PUSH1 0x0 MSTORE PUSH1 0x22 PUSH1 0x4 MSTORE PUSH1 0x24 PUSH1 0x0 REVERT JUMPDEST PUSH1 0x0 PUSH1 0x2 DUP3 DIV SWAP1 POP PUSH1 0x1 DUP3 AND DUP1 PUSH2 0xC5B JUMPI PUSH1 0x7F DUP3 AND SWAP2 POP JUMPDEST PUSH1 0x20 DUP3 LT DUP2 SUB PUSH2 0xC6E JUMPI PUSH2 0xC6D PUSH2 0xC14 JUMP JUMPDEST JUMPDEST POP SWAP2 SWAP1 POP JUMP JUMPDEST PUSH32 0x4E487B7100000000000000000000000000000000000000000000000000000000 PUSH1 0x0 MSTORE PUSH1 0x32 PUSH1 0x4 MSTORE PUSH1 0x24 PUSH1 0x0 REVERT JUMPDEST PUSH32 0x4E487B7100000000000000000000000000000000000000000000000000000000 PUSH1 0x0 MSTORE PUSH1 0x11 PUSH1 0x4 MSTORE PUSH1 0x24 PUSH1 0x0 REVERT JUMPDEST PUSH1 0x0 PUSH2 0xCDD DUP3 PUSH2 0x782 JUMP JUMPDEST SWAP2 POP PUSH32 0xFFFFFFFFFFFFFFFFFFFFFFFFFFFFFFFFFFFFFFFFFFFFFFFFFFFFFFFFFFFFFFFF DUP3 SUB PUSH2 0xD0F JUMPI PUSH2 0xD0E PUSH2 0xCA3 JUMP JUMPDEST JUMPDEST PUSH1 0x1 DUP3 ADD SWAP1 POP SWAP2 SWAP1 POP JUMP JUMPDEST PUSH1 0x0 DUP3 DUP3 MSTORE PUSH1 0x20 DUP3 ADD SWAP1 POP SWAP3 SWAP2 POP POP JUMP JUMPDEST PUSH32 0x41646472657373207A65726F206E6F742076616C696400000000000000000000 PUSH1 0x0 DUP3 ADD MSTORE POP JUMP JUMPDEST PUSH1 0x0 PUSH2 0xD61 PUSH1 0x16 DUP4 PUSH2 0xD1A JUMP JUMPDEST SWAP2 POP PUSH2 0xD6C DUP3 PUSH2 0xD2B JUMP JUMPDEST PUSH1 0x20 DUP3 ADD SWAP1 POP SWAP2 SWAP1 POP JUMP JUMPDEST PUSH1 0x0 PUSH1 0x20 DUP3 ADD SWAP1 POP DUP2 DUP2 SUB PUSH1 0x0 DUP4 ADD MSTORE PUSH2 0xD90 DUP2 PUSH2 0xD54 JUMP JUMPDEST SWAP1 POP SWAP2 SWAP1 POP JUMP JUMPDEST PUSH1 0x0 DUP2 SWAP1 POP DUP2 PUSH1 0x0 MSTORE PUSH1 0x20 PUSH1 0x0 KECCAK256 SWAP1 POP SWAP2 SWAP1 POP JUMP JUMPDEST PUSH1 0x0 PUSH1 0x20 PUSH1 0x1F DUP4 ADD DIV SWAP1 POP SWAP2 SWAP1 POP JUMP JUMPDEST PUSH1 0x0 DUP3 DUP3 SHL SWAP1 POP SWAP3 SWAP2 POP POP JUMP JUMPDEST PUSH1 0x0 PUSH1 0x8 DUP4 MUL PUSH2 0xDF9 PUSH32 0xFFFFFFFFFFFFFFFFFFFFFFFFFFFFFFFFFFFFFFFFFFFFFFFFFFFFFFFFFFFFFFFF DUP3 PUSH2 0xDBC JUMP JUMPDEST PUSH2 0xE03 DUP7 DUP4 PUSH2 0xDBC JUMP JUMPDEST SWAP6 POP DUP1 NOT DUP5 AND SWAP4 POP DUP1 DUP7 AND DUP5 OR SWAP3 POP POP POP SWAP4 SWAP3 POP POP POP JUMP JUMPDEST PUSH1 0x0 DUP2 SWAP1 POP SWAP2 SWAP1 POP JUMP JUMPDEST PUSH1 0x0 PUSH2 0xE40 PUSH2 0xE3B PUSH2 0xE36 DUP5 PUSH2 0x782 JUMP JUMPDEST PUSH2 0xE1B JUMP JUMPDEST PUSH2 0x782 JUMP JUMPDEST SWAP1 POP SWAP2 SWAP1 POP JUMP JUMPDEST PUSH1 0x0 DUP2 SWAP1 POP SWAP2 SWAP1 POP JUMP JUMPDEST PUSH2 0xE5A DUP4 PUSH2 0xE25 JUMP JUMPDEST PUSH2 0xE6E PUSH2 0xE66 DUP3 PUSH2 0xE47 JUMP JUMPDEST DUP5 DUP5 SLOAD PUSH2 0xDC9 JUMP JUMPDEST DUP3 SSTORE POP POP POP POP JUMP JUMPDEST PUSH1 0x0 SWAP1 JUMP JUMPDEST PUSH2 0xE83 PUSH2 0xE76 JUMP JUMPDEST PUSH2 0xE8E DUP2 DUP5 DUP5 PUSH2 0xE51 JUMP JUMPDEST POP POP POP JUMP JUMPDEST JUMPDEST DUP2 DUP2 LT ISZERO PUSH2 0xEB2 JUMPI PUSH2 0xEA7 PUSH1 0x0 DUP3 PUSH2 0xE7B JUMP JUMPDEST PUSH1 0x1 DUP2 ADD SWAP1 POP PUSH2 0xE94 JUMP JUMPDEST POP POP JUMP JUMPDEST PUSH1 0x1F DUP3 GT ISZERO PUSH2 0xEF7 JUMPI PUSH2 0xEC8 DUP2 PUSH2 0xD97 JUMP JUMPDEST PUSH2 0xED1 DUP5 PUSH2 0xDAC JUMP JUMPDEST DUP2 ADD PUSH1 0x20 DUP6 LT ISZERO PUSH2 0xEE0 JUMPI DUP2 SWAP1 POP JUMPDEST PUSH2 0xEF4 PUSH2 0xEEC DUP6 PUSH2 0xDAC JUMP JUMPDEST DUP4 ADD DUP3 PUSH2 0xE93 JUMP JUMPDEST POP POP JUMPDEST POP POP POP JUMP JUMPDEST PUSH1 0x0 DUP3 DUP3 SHR SWAP1 POP SWAP3 SWAP2 POP POP JUMP JUMPDEST PUSH1 0x0 PUSH2 0xF1A PUSH1 0x0 NOT DUP5 PUSH1 0x8 MUL PUSH2 0xEFC JUMP JUMPDEST NOT DUP1 DUP4 AND SWAP2 POP POP SWAP3 SWAP2 POP POP JUMP JUMPDEST PUSH1 0x0 PUSH2 0xF33 DUP4 DUP4 PUSH2 0xF09 JUMP JUMPDEST SWAP2 POP DUP3 PUSH1 0x2 MUL DUP3 OR SWAP1 POP SWAP3 SWAP2 POP POP JUMP JUMPDEST PUSH2 0xF4C DUP3 PUSH2 0x7F1 JUMP JUMPDEST PUSH8 0xFFFFFFFFFFFFFFFF DUP2 GT ISZERO PUSH2 0xF65 JUMPI PUSH2 0xF64 PUSH2 0x9EE JUMP JUMPDEST JUMPDEST PUSH2 0xF6F DUP3 SLOAD PUSH2 0xC43 JUMP JUMPDEST PUSH2 0xF7A DUP3 DUP3 DUP6 PUSH2 0xEB6 JUMP JUMPDEST PUSH1 0x0 PUSH1 0x20 SWAP1 POP PUSH1 0x1F DUP4 GT PUSH1 0x1 DUP2 EQ PUSH2 0xFAD JUMPI PUSH1 0x0 DUP5 ISZERO PUSH2 0xF9B JUMPI DUP3 DUP8 ADD MLOAD SWAP1 POP JUMPDEST PUSH2 0xFA5 DUP6 DUP3 PUSH2 0xF27 JUMP JUMPDEST DUP7 SSTORE POP PUSH2 0x100D JUMP JUMPDEST PUSH1 0x1F NOT DUP5 AND PUSH2 0xFBB DUP7 PUSH2 0xD97 JUMP JUMPDEST PUSH1 0x0 JUMPDEST DUP3 DUP2 LT ISZERO PUSH2 0xFE3 JUMPI DUP5 DUP10 ADD MLOAD DUP3 SSTORE PUSH1 0x1 DUP3 ADD SWAP2 POP PUSH1 0x20 DUP6 ADD SWAP5 POP PUSH1 0x20 DUP2 ADD SWAP1 POP PUSH2 0xFBE JUMP JUMPDEST DUP7 DUP4 LT ISZERO PUSH2 0x1000 JUMPI DUP5 DUP10 ADD MLOAD PUSH2 0xFFC PUSH1 0x1F DUP10 AND DUP3 PUSH2 0xF09 JUMP JUMPDEST DUP4 SSTORE POP JUMPDEST PUSH1 0x1 PUSH1 0x2 DUP9 MUL ADD DUP9 SSTORE POP POP POP JUMPDEST POP POP POP POP POP POP JUMP JUMPDEST PUSH1 0x0 DUP2 SLOAD SWAP1 POP PUSH2 0x1024 DUP2 PUSH2 0xC43 JUMP JUMPDEST SWAP1 POP SWAP2 SWAP1 POP JUMP JUMPDEST DUP2 DUP2 SUB PUSH2 0x1039 JUMPI POP POP PUSH2 0x1111 JUMP JUMPDEST PUSH2 0x1042 DUP3 PUSH2 0x1015 JUMP JUMPDEST PUSH8 0xFFFFFFFFFFFFFFFF DUP2 GT ISZERO PUSH2 0x105B JUMPI PUSH2 0x105A PUSH2 0x9EE JUMP JUMPDEST JUMPDEST PUSH2 0x1065 DUP3 SLOAD PUSH2 0xC43 JUMP JUMPDEST PUSH2 0x1070 DUP3 DUP3 DUP6 PUSH2 0xEB6 JUMP JUMPDEST PUSH1 0x0 PUSH1 0x1F DUP4 GT PUSH1 0x1 DUP2 EQ PUSH2 0x109F JUMPI PUSH1 0x0 DUP5 ISZERO PUSH2 0x108D JUMPI DUP3 DUP8 ADD SLOAD SWAP1 POP JUMPDEST PUSH2 0x1097 DUP6 DUP3 PUSH2 0xF27 JUMP JUMPDEST DUP7 SSTORE POP PUSH2 0x110A JUMP JUMPDEST PUSH1 0x1F NOT DUP5 AND PUSH2 0x10AD DUP8 PUSH2 0xD97 JUMP JUMPDEST SWAP7 POP PUSH2 0x10B8 DUP7 PUSH2 0xD97 JUMP JUMPDEST PUSH1 0x0 JUMPDEST DUP3 DUP2 LT ISZERO PUSH2 0x10E0 JUMPI DUP5 DUP10 ADD SLOAD DUP3 SSTORE PUSH1 0x1 DUP3 ADD SWAP2 POP PUSH1 0x1 DUP6 ADD SWAP5 POP PUSH1 0x20 DUP2 ADD SWAP1 POP PUSH2 0x10BB JUMP JUMPDEST DUP7 DUP4 LT ISZERO PUSH2 0x10FD JUMPI DUP5 DUP10 ADD SLOAD PUSH2 0x10F9 PUSH1 0x1F DUP10 AND DUP3 PUSH2 0xF09 JUMP JUMPDEST DUP4 SSTORE POP JUMPDEST PUSH1 0x1 PUSH1 0x2 DUP9 MUL ADD DUP9 SSTORE POP POP POP JUMPDEST POP POP POP POP POP POP JUMPDEST JUMP JUMPDEST PUSH1 0x0 PUSH2 0x111E DUP3 PUSH2 0x782 JUMP JUMPDEST SWAP2 POP PUSH1 0x0 DUP3 SUB PUSH2 0x1131 JUMPI PUSH2 0x1130 PUSH2 0xCA3 JUMP JUMPDEST JUMPDEST PUSH1 0x1 DUP3 SUB SWAP1 POP SWAP2 SWAP1 POP JUMP JUMPDEST PUSH32 0x53747564656E7420686173206265656E2064656C657465640000000000000000 PUSH1 0x0 DUP3 ADD MSTORE POP JUMP JUMPDEST PUSH1 0x0 PUSH2 0x1172 PUSH1 0x18 DUP4 PUSH2 0xD1A JUMP JUMPDEST SWAP2 POP PUSH2 0x117D DUP3 PUSH2 0x113C JUMP JUMPDEST PUSH1 0x20 DUP3 ADD SWAP1 POP SWAP2 SWAP1 POP JUMP JUMPDEST PUSH1 0x0 PUSH1 0x20 DUP3 ADD SWAP1 POP DUP2 DUP2 SUB PUSH1 0x0 DUP4 ADD MSTORE PUSH2 0x11A1 DUP2 PUSH2 0x1165 JUMP JUMPDEST SWAP1 POP SWAP2 SWAP1 POP JUMP INVALID LOG2 PUSH5 0x6970667358 0x22 SLT KECCAK256 0x4F PUSH15 0x428E18973DBE6A3D090B765552581B 0xAA PC 0xBC INVALID MULMOD GT 0xE2 0xBB LT 0xCB 0xBD INVALID 0x21 GT 0x4E PUSH5 0x736F6C6343 STOP ADDMOD SHR STOP CALLER "
        },
        "methodIdentifiers": {
          "count()": "06661abd",
          "getStudentById(uint256)": "c8fb0793",
          "getStudentList()": "1dcc5976",
          "registerStudent(uint256,string)": "3f9586d4",
          "removeStudent(uint256)": "6af83845"
        }
      }
    }
  }
}