{
  "_format": "hh-sol-artifact-1",
  "contractName": "Register",
  "sourceName": "contracts/Register.sol",
  "abi": [
    {
      "inputs": [],
      "stateMutability": "nonpayable",
      "type": "constructor"
    },
    {
      "inputs": [],
      "name": "count",
      "outputs": [
        {
          "internalType": "uint256",
          "name": "",
          "type": "uint256"
        }
      ],
      "stateMutability": "view",
      "type": "function"
    },
    {
      "inputs": [
        {
          "internalType": "uint256",
          "name": "_studentId",
          "type": "uint256"
        }
      ],
      "name": "getStudentById",
      "outputs": [
        {
          "components": [
            {
              "internalType": "uint256",
              "name": "studentId",
              "type": "uint256"
            },
            {
              "internalType": "string",
              "name": "studentName",
              "type": "string"
            },
            {
              "internalType": "bool",
              "name": "isRemoved",
              "type": "bool"
            }
          ],
          "internalType": "struct Register.Student",
          "name": "",
          "type": "tuple"
        }
      ],
      "stateMutability": "view",
      "type": "function"
    },
    {
      "inputs": [],
      "name": "getStudentList",
      "outputs": [
        {
          "components": [
            {
              "internalType": "uint256",
              "name": "studentId",
              "type": "uint256"
            },
            {
              "internalType": "string",
              "name": "studentName",
              "type": "string"
            },
            {
              "internalType": "bool",
              "name": "isRemoved",
              "type": "bool"
            }
          ],
          "internalType": "struct Register.Student[]",
          "name": "",
          "type": "tuple[]"
        }
      ],
      "stateMutability": "view",
      "type": "function"
    },
    {
      "inputs": [
        {
          "internalType": "uint256",
          "name": "_studentId",
          "type": "uint256"
        },
        {
          "internalType": "string",
          "name": "_studentName",
          "type": "string"
        }
      ],
      "name": "registerStudent",
      "outputs": [],
      "stateMutability": "nonpayable",
      "type": "function"
    },
    {
      "inputs": [
        {
          "internalType": "uint256",
          "name": "_studentId",
          "type": "uint256"
        }
      ],
      "name": "removeStudent",
      "outputs": [],
      "stateMutability": "nonpayable",
      "type": "function"
    }
  ],
  "bytecode": "0x6080604052348015600f57600080fd5b5033600160006101000a81548173ffffffffffffffffffffffffffffffffffffffff021916908373ffffffffffffffffffffffffffffffffffffffff1602179055506111de806100606000396000f3fe608060405234801561001057600080fd5b50600436106100575760003560e01c806306661abd1461005c5780631dcc59761461007a5780633f9586d4146100985780636af83845146100b4578063c8fb0793146100d0575b600080fd5b610064610100565b604051610071919061079b565b60405180910390f35b610082610106565b60405161008f9190610982565b60405180910390f35b6100b260048036038101906100ad9190610b19565b6102bf565b005b6100ce60048036038101906100c99190610b75565b6104cf565b005b6100ea60048036038101906100e59190610b75565b610611565b6040516100f79190610bf2565b60405180910390f35b60005481565b60606000805467ffffffffffffffff811115610125576101246109ee565b5b60405190808252806020026020018201604052801561015e57816020015b61014b61075f565b8152602001906001900390816101435790505b509050600080600190505b60005481116102b657600015156006600083815260200190815260200160002060020160009054906101000a900460ff161515036102a35760066000828152602001908152602001600020604051806060016040529081600082015481526020016001820180546101d990610c43565b80601f016020809104026020016040519081016040528092919081815260200182805461020590610c43565b80156102525780601f1061022757610100808354040283529160200191610252565b820191906000526020600020905b81548152906001019060200180831161023557829003601f168201915b505050505081526020016002820160009054906101000a900460ff16151515158152505083838151811061028957610288610c74565b5b6020026020010181905250818061029f90610cd2565b9250505b80806102ae90610cd2565b915050610169565b50819250505090565b600160009054906101000a900473ffffffffffffffffffffffffffffffffffffffff1673ffffffffffffffffffffffffffffffffffffffff163373ffffffffffffffffffffffffffffffffffffffff161461031957600080fd5b600073ffffffffffffffffffffffffffffffffffffffff163373ffffffffffffffffffffffffffffffffffffffff1603610388576040517f08c379a000000000000000000000000000000000000000000000000000000000815260040161037f90610d77565b60405180910390fd5b60008081548092919061039a90610cd2565b919050555060405180606001604052808381526020018281526020016000151581525060026000820151816000015560208201518160010190816103de9190610f43565b5060408201518160020160006101000a81548160ff0219169083151502179055509050506002600560008481526020019081526020016000206000820154816000015560018201816001019081610435919061102b565b506002820160009054906101000a900460ff168160020160006101000a81548160ff02191690831515021790555090505060026006600080548152602001908152602001600020600082015481600001556001820181600101908161049a919061102b565b506002820160009054906101000a900460ff168160020160006101000a81548160ff0219169083151502179055509050505050565b600160009054906101000a900473ffffffffffffffffffffffffffffffffffffffff1673ffffffffffffffffffffffffffffffffffffffff163373ffffffffffffffffffffffffffffffffffffffff161461052957600080fd5b600073ffffffffffffffffffffffffffffffffffffffff163373ffffffffffffffffffffffffffffffffffffffff1603610598576040517f08c379a000000000000000000000000000000000000000000000000000000000815260040161058f90610d77565b60405180910390fd5b60016005600083815260200190815260200160002060020160006101000a81548160ff0219169083151502179055506001600660008054815260200190815260200160002060020160006101000a81548160ff02191690831515021790555060008081548092919061060990611113565b919050555050565b61061961075f565b600015156005600084815260200190815260200160002060020160009054906101000a900460ff16151514610683576040517f08c379a000000000000000000000000000000000000000000000000000000000815260040161067a90611188565b60405180910390fd5b60056000838152602001908152602001600020604051806060016040529081600082015481526020016001820180546106bb90610c43565b80601f01602080910402602001604051908101604052809291908181526020018280546106e790610c43565b80156107345780601f1061070957610100808354040283529160200191610734565b820191906000526020600020905b81548152906001019060200180831161071757829003601f168201915b505050505081526020016002820160009054906101000a900460ff1615151515815250509050919050565b604051806060016040528060008152602001606081526020016000151581525090565b6000819050919050565b61079581610782565b82525050565b60006020820190506107b0600083018461078c565b92915050565b600081519050919050565b600082825260208201905092915050565b6000819050602082019050919050565b6107eb81610782565b82525050565b600081519050919050565b600082825260208201905092915050565b60005b8381101561082b578082015181840152602081019050610810565b60008484015250505050565b6000601f19601f8301169050919050565b6000610853826107f1565b61085d81856107fc565b935061086d81856020860161080d565b61087681610837565b840191505092915050565b60008115159050919050565b61089681610881565b82525050565b60006060830160008301516108b460008601826107e2565b50602083015184820360208601526108cc8282610848565b91505060408301516108e1604086018261088d565b508091505092915050565b60006108f8838361089c565b905092915050565b6000602082019050919050565b6000610918826107b6565b61092281856107c1565b935083602082028501610934856107d2565b8060005b85811015610970578484038952815161095185826108ec565b945061095c83610900565b925060208a01995050600181019050610938565b50829750879550505050505092915050565b6000602082019050818103600083015261099c818461090d565b905092915050565b6000604051905090565b600080fd5b600080fd5b6109c181610782565b81146109cc57600080fd5b50565b6000813590506109de816109b8565b92915050565b600080fd5b600080fd5b7f4e487b7100000000000000000000000000000000000000000000000000000000600052604160045260246000fd5b610a2682610837565b810181811067ffffffffffffffff82111715610a4557610a446109ee565b5b80604052505050565b6000610a586109a4565b9050610a648282610a1d565b919050565b600067ffffffffffffffff821115610a8457610a836109ee565b5b610a8d82610837565b9050602081019050919050565b82818337600083830152505050565b6000610abc610ab784610a69565b610a4e565b905082815260208101848484011115610ad857610ad76109e9565b5b610ae3848285610a9a565b509392505050565b600082601f830112610b0057610aff6109e4565b5b8135610b10848260208601610aa9565b91505092915050565b60008060408385031215610b3057610b2f6109ae565b5b6000610b3e858286016109cf565b925050602083013567ffffffffffffffff811115610b5f57610b5e6109b3565b5b610b6b85828601610aeb565b9150509250929050565b600060208284031215610b8b57610b8a6109ae565b5b6000610b99848285016109cf565b91505092915050565b6000606083016000830151610bba60008601826107e2565b5060208301518482036020860152610bd28282610848565b9150506040830151610be7604086018261088d565b508091505092915050565b60006020820190508181036000830152610c0c8184610ba2565b905092915050565b7f4e487b7100000000000000000000000000000000000000000000000000000000600052602260045260246000fd5b60006002820490506001821680610c5b57607f821691505b602082108103610c6e57610c6d610c14565b5b50919050565b7f4e487b7100000000000000000000000000000000000000000000000000000000600052603260045260246000fd5b7f4e487b7100000000000000000000000000000000000000000000000000000000600052601160045260246000fd5b6000610cdd82610782565b91507fffffffffffffffffffffffffffffffffffffffffffffffffffffffffffffffff8203610d0f57610d0e610ca3565b5b600182019050919050565b600082825260208201905092915050565b7f41646472657373207a65726f206e6f742076616c696400000000000000000000600082015250565b6000610d61601683610d1a565b9150610d6c82610d2b565b602082019050919050565b60006020820190508181036000830152610d9081610d54565b9050919050565b60008190508160005260206000209050919050565b60006020601f8301049050919050565b600082821b905092915050565b600060088302610df97fffffffffffffffffffffffffffffffffffffffffffffffffffffffffffffffff82610dbc565b610e038683610dbc565b95508019841693508086168417925050509392505050565b6000819050919050565b6000610e40610e3b610e3684610782565b610e1b565b610782565b9050919050565b6000819050919050565b610e5a83610e25565b610e6e610e6682610e47565b848454610dc9565b825550505050565b600090565b610e83610e76565b610e8e818484610e51565b505050565b5b81811015610eb257610ea7600082610e7b565b600181019050610e94565b5050565b601f821115610ef757610ec881610d97565b610ed184610dac565b81016020851015610ee0578190505b610ef4610eec85610dac565b830182610e93565b50505b505050565b600082821c905092915050565b6000610f1a60001984600802610efc565b1980831691505092915050565b6000610f338383610f09565b9150826002028217905092915050565b610f4c826107f1565b67ffffffffffffffff811115610f6557610f646109ee565b5b610f6f8254610c43565b610f7a828285610eb6565b600060209050601f831160018114610fad5760008415610f9b578287015190505b610fa58582610f27565b86555061100d565b601f198416610fbb86610d97565b60005b82811015610fe357848901518255600182019150602085019450602081019050610fbe565b868310156110005784890151610ffc601f891682610f09565b8355505b6001600288020188555050505b505050505050565b60008154905061102481610c43565b9050919050565b818103611039575050611111565b61104282611015565b67ffffffffffffffff81111561105b5761105a6109ee565b5b6110658254610c43565b611070828285610eb6565b6000601f83116001811461109f576000841561108d578287015490505b6110978582610f27565b86555061110a565b601f1984166110ad87610d97565b96506110b886610d97565b60005b828110156110e0578489015482556001820191506001850194506020810190506110bb565b868310156110fd57848901546110f9601f891682610f09565b8355505b6001600288020188555050505b5050505050505b565b600061111e82610782565b91506000820361113157611130610ca3565b5b600182039050919050565b7f53747564656e7420686173206265656e2064656c657465640000000000000000600082015250565b6000611172601883610d1a565b915061117d8261113c565b602082019050919050565b600060208201905081810360008301526111a181611165565b905091905056fea26469706673582212204f6e428e18973dbe6a3d090b765552581baa58bcfe0911e2bb10cbbdfe21114e64736f6c634300081c0033",
  "linkReferences": {},
  "deployedLinkReferences": {}
}